:060000000A128A110C280F
:10000800FE00030EF1000A08F2000A128A11332CCE
:100018000A128A110F2883120313B101B201B30126
:10002800B401B50183010A128A11F829FF1B24289B
:1000380083137F1883170008840A0319FF0A08002E
:100048007F087F398A000408840A0319FF0A82009E
:100200000D34203449346E346734723465347334B9
:100210006534203475346E34203463346134723480
:10022000613463347434653472342034703461342E
:100230007234613420346D346F34733474347234F6
:1002400061347234203465346E3420344134533494
:10025000433449344934203465346C3420347034A8
:1002600075346534723474346F34203442343A3423
:10027000203400340D3420342A342A342A342A34E9
:100280002A342A342A342A342A342A342A342A347E
:100290002A342A342A342A342A342A342A342A346E
:1002A0002A342A342A342A342A342A342A342A345E
:1002B0002A342A342A342A342A342A342A342A344E
:1002C0002A34203420340D3400340D3420344234A8
:1002D000693465346E34763465346E34693464342C
:1002E0006F342C34203471347534653420346134E7
:1002F0006334633469346F346E3420346434653469
:1003000073346534613420347234653461346C3450
:1003100069347A34613472343F3420340D3400341B
:100320000D34203445346C342034763461346C34EC
:100330006F3472342034643465346C342034703457
:100340006F34743465346E3463346934F3346D342B
:100350006534743472346F3420346534733420342B
:100360000D3400342034323429342034443465349C
:10037000733470346C3465346734613472342034CF
:10038000763461346C346F347234203441345334F5
:100390004334493449340D34003420343134293461
:1003A00020344C34653465347234203450346F3426
:1003B000743465346E34633469346F346D34653449
:1003C000743472346F3420340D3400340D342034DE
:1003D0004C346934733474346F3420340D34003445
:1003E0004534723472346F34723420340D34003436
:1003F0000A128A116A230A128A11831203139F18A0
:10040000022A032A042A9F143A30F3008130F400B0
:100410000A128A110D240A128A116530F300813004
:10042000F4000A128A110D240A128A11CD30F30049
:100430008130F4000A128A110D240A128A11B23096
:10044000F3008130F4000A128A110D240A128A1175
:100450003A30F3008130F4000A128A110D240A1296
:100460008A1183120313B401B40AA92A8C1E392AF3
:100470003A2A362A3208AF002F08B300992A903062
:10048000F3008130F4000A128A110D240A128A1135
:10049000831203133108AF00B0012F08A900300800
:1004A000AA000A30AB000030AC0035300A128A11C5
:1004B000E7230A128A1135300A128A1156240A12C9
:1004C0008A11E630F3008130F4000A128A110D24FB
:1004D0000A128A1183120313B401A92A0030F3000F
:1004E0008130F4000A128A110D240A128A11831233
:1004F00003138C1E7C2A7D2A772A32088600320854
:100500000A128A1156240A128A11E630F300813049
:10051000F4000A128A110D240A128A116A2AF03094
:10052000F3008130F4000A128A110D240A128A1194
:10053000A92A3308AF00B0013008003A0319A12AF4
:100540008F2A2F08313A03193F2A033A03196E2ADA
:100550008F2A831203133408031DAF2AB02A362AC8
:10056000FD290A128A110C2883120313A8002108FE
:10057000A6002008A5002308F4002208F30026089E
:10058000F6002508F5000A128A1126230A128A119C
:10059000740883120313A6007308A5000130A40099
:1005A0002408A80725082604031DD72AD82ABB2A11
:1005B00028088400831380010130A8022308F40076
:1005C0002208F3002108F6002008F5000A128A111B
:1005D000AD230A128A11730883120313A40024089E
:1005E000A7002308F4002208F3002108F6002008E1
:1005F000F5000A128A1126230A128A11740883123E
:100600000313A1007308A0000A302702031C092B62
:100610000A2B0E2B0730A4002408A7073030A400B3
:100620002408A7072708A4002808840024088313A7
:1006300080000130A80220082104031D202B212B5B
:10064000DE2A0130A4002408A8070800F801F901F7
:100650007308740403192D2B2E2B652BFA01FA0A4B
:100660003C2B01300310F30DF40DFF3E031D322B24
:100670000130F7007708FA07F41F3F2B402B312B8E
:1006800001300310F80DF90DFF3E031D412B7408D6
:100690007602031D4D2B73087502031C502B512B42
:1006A000582B7308F5027408031CF603F60278143D
:1006B00001300310F40CF30CFF3E031D592B0130E5
:1006C000FA02031D642B652B402B7908F40078088F
:1006D000F300080001308316031788008901831690
:1006E00003138601831203138601831603130F0875
:1006F0008F3940388F000F141812181583160317FE
:10070000871519308316031399009A018312031376
:1007100098178316031318139816831203131816C9
:10072000831603139F131F129F12831203131F08B4
:100730003F3940389F00C3309F051F140330F3003A
:10074000F30BA02BA32B8B170B17831603130C177C
:100750008C16831203130C13080073087404031916
:10076000B22BB32BE22BF801F80AC12B0130031096
:10077000F30DF40DFF3E031DB72B0130F700770892
:10078000F807F41FC42BC52BB62B74087602031D83
:10079000CB2B73087502031CCE2BCF2BD52B7308E4
:1007A000F5027408031CF603F60201300310F40C82
:1007B000F30CFF3E031DD62B0130F802031DE12B85
:1007C000E22BC52B7608F4007508F30008008312AD
:1007D0000313AE00AA1FED2BEE2BFE2B2D30AD0028
:1007E0002E0884002D08831380000130AD002D08F1
:1007F000AE07A909AA09A90A0319AA0A2A08A10089
:100800002908A0002C08A3002B08A2002E080A1219
:100810008A11B4220A128A110800222C0C1E112CF3
:10082000122C0E2C7408FF00730884000A128A111F
:100830001A200A128A1199000130F3070318F40AEA
:100840000030F407740883120313FF007308840058
:100850000A128A111A200A128A11003A031D312C39
:10086000322C0E2C0800831203138C1E382C392CCA
:100870003D2C1A08F0007008B2000C1F402C412CCF
:100880004F2C1F0CF000700C0F39003A031D492C3F
:100890004A2C4E2C1E08F0007008B1000C13720890
:1008A0008A00710E8300FE0E7E0E0900F30083168F
:1008B0000313981C5C2C5D2C572C730883120313B4
:0408C0009900080093
:08400000FF3FFF3FFF3FFF3FC0
:04400E00D420FF3F7C
:00000001FF
